:020000041000EA
:1000000000B5324B212058609868022188439860DF
:10001000D860186158612E4B002199600221596106
:100020000121F02299502B49196001219960352056
:1000300000F044F80222904214D00621196600F024
:1000400034F8196E01211966002018661A6600F04E
:100050002CF8196E196E196E052000F02FF8012189
:100060000842F9D1002199601B49196000215960AB
:100070001A491B48016001219960EB211966A021F2
:10008000196600F012F800219960164914480160C1
:100090000121996001BC002800D000471248134993
:1000A000086003C880F30888084703B5996A0420EC
:1000B0000142FBD001200142F8D103BD02B5186610
:1000C0001866FFF7F2FF186E186E02BD00000240BE
:1000D000000000180000070000035F00212200005C
:1000E000F4000018222000A00001001008ED00E03C
:1000F00000000000000000000000000074B24E7A12
:1001000000200420F7010010C3010010C5010010F9
:10011000C1010010C1010010C1010010C101001097
:10012000C1010010C1010010C1010010C701001081
:10013000C1010010C1010010C9010010CB01001065
:10014000CD010010CD010010CD010010CD01001037
:10015000CD010010CD010010CD010010CD01001027
:10016000CD010010CD010010CD010010CD01001017
:10017000CD010010CD010010CD010010CD01001007
:10018000CD010010CD010010CD010010CD010010F7
:10019000CD010010CD010010CD010010CD010010E7
:1001A000CD010010CD010010CD010010CD010010D7
:1001B000CD010010CD010010CD010010CD010010C7
:1001C00000BE00BE00BE00BE00BE00BEEFF3058054
:1001D000103800BEF2EB8871A0330510C43305104F
:1001E0003802001090A31AE71E481F49086006C88D
:1001F00081F3088810471D480068002801D019487D
:10020000F3E70DA40ECC002902D000F012F8F9E7B4
:100210001749184A002000E001C19142FCD116495B
:100220008847164988471649884700BEFDE701C937
:1002300001C29A42FBD37047C4330510F00000207E
:10024000981300206C4605100000042000000420D4
:100250006C4605100010042000100420000000006F
:10026000704700000000000008ED00E0000000D032
:100270009813002070E20220A13C00102505001018
:10028000993C0010F8B5C04606480749091A8B107A
:10029000C90FC91810B5491003D0044B002B00D06A
:1002A000984710BD9813002098130020000000000C
:1002B000054B10B5002B03D00449054800E000BFF2
:1002C000FFF7E2FF10BDC04600000000ACCB0020ED
:1002D0005C88011010B528E0214C2248210003F071
:1002E0003DFE2149200000F05DFA00282FD01F4B71
:1002F00001221A701E4B1868043012F093FD0100A1
:100300001C4C1422200018F009F81B48210003F0AF
:1003100025FE1A4803F0F2FD194B1A4A1A491B48E8
:1003200000F0CEF91A4807F051FF104B1B78002B54
:10033000D2D000F027FA0028F4D1164803F0DEFDF1
:100340000F4B104A1049114800F0BAF9EAE7074B81
:1003500000221A7012F01EFF0F4803F0CFFDE1E7F4
:10036000E0880110EC8801101489011062E202207B
:100370009CCB0020F00C0020208901104C8901103A
:100380009C880110AC880110B8880110CC8801103D
:1003900088130000608801107089011070B5D024A6
:1003A000240680252D016561322007F00FFFA5612D
:1003B00070BD000070B505000C00080018F006F8CC
:1003C000020000232100280000F0B8F9002807D01F
:1003D00006482200290003F0C1FDFFF7DFFF70BDD2
:1003E0000348290003F0BAFDF9E7C046A8890110C7
:1003F000C0890110F0B5DE4657464E464546E0B589
:100400003D4CA54403E0FA20800007F0DFFE3B4BA3
:100410001B78002BF7D000F0B5F90028F3D002E0EC
:10042000374807F0D3FE00F0ADF90028F8D00121DD
:10043000344B1868494207F07FFA0128F0D1324E58
:100440006E449AAF9CAC32003900200000F0D6F91F
:100450002C4B186800230022002107F0F6F896AD17
:100460002900200000F010FA93AC2100380000F0C1
:100470002BFA0023F05E00F045FA969E979F989B1A
:100480009846939B9946949B9A46959B9B468025BC
:1004900013AC02F005FA10901191584602F000FAE0
:1004A0000E900F91504602F0FBF90C900D914846CA
:1004B00002F0F6F90A900B91404602F0F1F908902B
:1004C0000991381C02F0ECF906900791301C02F0FB
:1004D000E7F9049005910D4B02930D4B01930D4BE1
:1004E00000930D4B0D4AA900200003F079FB0C4846
:1004F0002100FFF75FFF93E784FDFFFF62E2022028
:1005000010270000A42D002066020000E0880110E2
:10051000F00C0020CC880110DC890110E08901106A
:10052000B48A011030B583B003F0D6FC224801F044
:100530000DFA224803F0E2FC00F054F8204821496B
:1005400008F084FD0321002000F0EAF903210120D6
:1005500000F0E6F900220121002000F0FBF9002262
:100560000121012000F0F6F900F038F9164803F0F7
:10057000C5FC012007F0FCF8144B1860002817D0C8
:100580008024E400124913480025019502230093BA
:100590000023220007F060FC0F4910480195012359
:1005A00000930023220007F057FC07F091FCFEE7C0
:1005B0000B4803F0A3FCFEE7581B0000D88A01108B
:1005C000C80D0020801A0600108B0110A42D0020F9
:1005D000548B0110D5020010608B0110F503001040
:1005E000288B011010B50B2000F04CFA0C2000F005
:1005F00049FA0D2000F046FAD0231B0680200001A6
:100600005862802149015962802292015A629861A0
:1006100099619A6110BD000010B5111E03D1044804
:1006200003F06CFC10BD034803F098FCFAE7C046E9
:100630006C8B0110988B011010B5002900D110BDF2
:10064000014803F08BFCFAE7C88B011010B582B0AB
:10065000040012F0E7FB0100084B180003F07EFCD9
:10066000074B084A1068084A019200220092074A84
:10067000210017F009F802B010BDC046FC8B011034
:100680001906001070DE002054DE00205B07000019
:1006900010B50C1E0BD0080012F0C4FB0100064B75
:1006A000180003F05BFC2000FFF7D0FF10BD0348EB
:1006B00003F024FCFAE7C046208C0110488C01109E
:1006C000F0B5C64600B582B00500884617001E008A
:1006D00016F0D2FF134B1860002814D0124C25607E
:1006E0006760A6603C23A381104A002301A940460D
:1006F00009F06EFE0100031E09D005330ED102B0D1
:1007000080BCB846F0BD0A4803F0F8FBF7E709489B
:1007100003F0F4FB01A8FFF799FFF0E7064803F0A8
:100720001DFCECE770DE002054DE00209106001076
:10073000788C0110A88C0110D88C0110F0B585B010
:1007400005000E0014001F000C4B186817F032F95A
:10075000002802D1002005B0F0BDA3B2074A1068FE
:10076000002203920649029101970092320029006B
:1007700016F0E6FE43425841C0B2ECE770DE0020BE
:100780003906001010B5064B1868002801D100206A
:1007900010BD17F00FF9431E9841C0B2F8E7C046EC
:1007A00070DE002070B504000D0012F00BFD002873
:1007B00001D0002070BD12F01DFC064B064A290036
:1007C000200012F0ADFC002801D10130F2E700203A
:1007D000F0E7C046307500000400400000B585B069
:1007E00003AA6B231380044800230093023368217B
:1007F00008F056FC05B000BDC80D0020F0B5C64697
:1008000000B588B006000D0090460F226A443B23D5
:1008100013701C4F3A3B00936821380008F040FCED
:1008200004AC002300930E3322006821380008F046
:1008300043FC22786378120213433380A278E37872
:100840001202134373802279637912021343B38037
:10085000A279E3791202134342461380227A637A23
:10086000120213432B80A27AE37A120213436B80A5
:10087000227B637B12021343AB8008B080BCB84676
:10088000F0BDC046C80D002070B505000C00002367
:10089000C05E01F0E3FFE221890501F0D8FF20608E
:1008A0000223E85E01F0DAFFE221890501F0CFFFC3
:1008B00060600423E85E01F0D1FFE221890501F0C8
:1008C000C6FFA06070BD000070B505000C000023DD
:1008D000C05E01F0C3FF0A4901F0A5FF20600223BA
:1008E000E85E01F0BBFF064901F09DFF6060042354
:1008F000E85E01F0B3FF024901F095FFA06070BD12
:100900000000034310B501F0A9FF034901F08BFF7C
:10091000024901F085FF10BD0000AA43B81E124233
:1009200010B58300084A9A18146840225440803257
:100930002240064CA44663441A60C000044B9C4607
:100940006044416010BDC04604C0014004D0014075
:100950000040014080000C4B9C46604400290ED0B2
:100960000823002A0DD004221343026853400C22AE
:100970001340802252019446604403607047002374
:10098000EFE70022F0E7C04604C00140002906D08E
:100990008000064B9C466044022303607047800041
:1009A000034B9C46604402230360F7E704E00140E8
:1009B00004F0014070B504000D001600D0231B06A2
:1009C0001A680B4B9200D35818420DD1D0231B0646
:1009D0001B6807499B005A5822435A50320029008D
:1009E0000D2000F0BFF970BD01F08AFAEEE7C046B5
:1009F00038DE002010B504000D2000F0A3FAD0234B
:100A00001B061B6802499B005A58A2435A5010BD4E
:100A100038DE0020072303409B00C00899403C308B
:100A20008000014BC150704700400140F8B50700FD
:100A30000D0016001C00FFF7EDFFFB089B00E418FB
:100A40000720384080008540002E05D080239B0180
:100A50009C4664442560F8BDC0239B019C466444C9
:100A60002560F8E710B5D0231B061B68002B03D0C8
:100A7000024BFFF7DBFF10BD014BFAE730410140AD
:100A80000041014010B501238340D0221206936239
:100A900093610521FFF744FF10BD8023DB05186833
:100AA000000F70470FB400B583B0084803F026FA72
:100AB000049B002B07D005A90191180003F0B6F89C
:100AC000034803F01BFA012003F0C8F8008D011061
:100AD000D889011010B50148FFF7E4FF108D01100F
:100AE000EFF3108072B6034B1B68002BFBD0BFF3F3
:100AF0005F8F70472C0100D0BFF35F8F024B002245
:100B00001A6080F3108870472C0100D0F8B50600F9
:100B10000C001500FFF7E4FFE308F718F15C07226B
:100B20002240012393400B4205D1DBB20B433B70C3
:100B3000FFF7E2FFF8BD21002800FFF7B3FFF0B593
:100B400083B00600019114001F00FFF7C9FF00E009
:100B50000134BC420CD8E308F518F35C07212140AE
:100B600001228A401A42F3D1D2B21A432A7001E01C
:100B700001246442FFF7C0FF002C02DB200003B019
:100B8000F0BD019B002BF9D00898FFF78BFF70B5E3
:100B900004000D00FFF7A4FFEE08A35D0721294024
:100BA00001228A409343A355FFF7A6FF70BD0000C2
:100BB000054A1078431CDBB21370172B02D91300BF
:100BC00010221A707047C046040D002010B582B084
:100BD0000100054C054B00931F2318222000FFF74E
:100BE000AEFF02B010BDC046B01E0020208D011027
:100BF000002307E0054A9A189200BFF35F8F002197
:100C0000116001331F2BF5D97047C04640000034F6
:100C1000074B9B68103080001950BFF35F8FBFF304
:100C20005F8F044B0021196082F310887047C04623
:100C300000ED00E0240100D0091A043949104905EB
:100C4000490D0248084380B27047C04600E0FFFFEC
:100C5000091A04394A08090B4905490D034B0B438E
:100C60000380034B134343807047C04600F0FFFFEF
:100C700000F8FFFF0048704700E400E010B5FFF700
:100C8000F9FF002302E0034A04C00133072BFAD91D
:100C900010BDC046808080801F23181A7047000056
:100CA00001238340034A10681840431E9841C0B294
:100CB0007047C04600E100E0002A05D0044BC02286
:100CC0005200995019607047014A8023D150FAE7C9
:100CD00000E100E010B50A001F2303400121994004
:100CE0004009FFF7E9FF10BD01238340014A13606B
:100CF0007047C04600E200E0024B9B681030800065
:100D0000C058704700ED00E010B5FFF7F5FF044B49
:100D1000C31A00202F229A424041C0B210BDC046E3
:100D2000080D002070B504000D00EFF3108672B6B8
:100D30000A4B1B68002BFBD0BFF35F8F2000FFF72F
:100D4000DBFF074B984203D0A84201D001F0D8F84E
:100D5000320029002000FFF75BFF70BD240100D0A6
:100D6000CD010010F0B5DE4657464E464546E0B58B
:100D700089B0814601911500EFF3108B72B6664B76
:100D80001B68002BFBD0BFF35F8F644B1B785BB2FB
:100D9000002B42DB614A0027D7577C00E419A400EE
:100DA0005F4BE4180621615611705E4A91684A460D
:100DB000103292008A589046D31A2F2B33D95A4BAF
:100DC0009A422DD105AE594B338059497B009A4642
:100DD000D8198000524B984640440230FFF72CFF50
:100DE0007080544BB380FF23B371F571019B07935F
:100DF0003B0053449B00434407CE07C301231C43DD
:100E0000A0465A4641464846FFF702FF09B0F0BCEB
:100E1000BB46B246A946A046F0BD01F071F8B9E75D
:100E200001F06EF8CEE701239A43924613000026A4
:100E300005E04A005218920039491E008B18DA79F1
:100E4000AA4204D9062159560029F2DA1E00002EC2
:100E500031D005AB384A1A80813A5A800623F356BE
:100E60000293002B25DB311DB3885B055B15023334
:100E70005B00C9187800C0198000294BC0180430E5
:100E8000FFF7DAFE05AB9A469880029A9A71DD71F7
:100E9000019A0792301D2100FFF7CEFEB080B77196
:100EA0001F4B7A00D21992009B18524613CA13C3E3
:100EB000A7E72248E6E705AE1C4B33801C497B00C0
:100EC0000293DB199B00164A90461A004244039293
:100ED000901CFFF7B1FE7080039A101D5146FFF77A
:100EE000ABFEB080164B52464146521A5241534314
:100EF0001B0DB371F571019A0792029BDB199B00E0
:100F0000434407CE07C30C4B52461380813B5380AA
:100F100001231C43A04674E7240100D063E20220B1
:100F2000080D002000ED00E0CD01001000A1FFFF42
:100F3000380D002001BDFFFF0148000001BD000089
:100F4000AAAA0000F0B5D6464F464646C0B582B0C4
:100F500005000E00EFF3108872B64D4B1B68002B96
:100F6000FBD0BFF35F8F4B4B9A682C001034A3006B
:100F7000D758494B9F4207D0B74200D186E001972E
:100F8000464BFB1A2F2B0AD9424639002800FFF79F
:100F90003FFE02B0E0BCBA46B146A846F0BD28000C
:100FA000FFF77EFE814600212800FFF793FEBFF386
:100FB0005F8FEFF305839A46002B01D09C4211D13D
:100FC0000123019C9C430021A3689E420ED006226F
:100FD000A256002A09DB53009B189B002F4A2100D0
:100FE000D418F1E700F08CFFEAE721009E4204D01C
:100FF00049462800FFF76EFEC6E70626A657002ED4
:1010000029DB264B7200921992009B189A68A26005
:10101000DA79E2719B795BB2A371002B19DB730063
:101020009B199B001D4A9B18191D9B885B055B152E
:1010300002335B00C918201DFFF7FEFDA080174B8F
:101040007200921992009B18154A117899711670C6
:10105000CEE71448F2E75346002B12D100290ED0F8
:10106000FF338B71104B8B800D490B78A3710B4AAA
:101070000E4BA41A644163431B0D0B70B8E7064F77
:10108000F2E70B49201DFFF7E3FDB1E7024F7BE7D5
:10109000240100D000ED00E0CD010010080D00207B
:1010A00063E2022001BD000001BDFFFFAAAA00000B
:1010B000420D002070B505000C00FFF7DBFDAB080A
:1010C0009B00C218116803232B40DB00FF209840CF
:1010D00081439C402143116070BD0000F0B50126A2
:1010E0000643EFF30581EFF3108572B61D4B1B68C5
:1010F000002BFBD0BFF35F8F1B4A1C4B0400A41ACC
:10110000644163431B0D5CB2194B9A688B00D25843
:10111000B2420DD0002103290ED8134B4A005218B9
:1011200092009B189B795BB2A34211D00131F2E788
:101130000F4A92680F49D1500F4B1A7882711C7078
:10114000BFF35F8F074B00221A6085F31088F0BD54
:10115000054B4A005618B6009E19FF27B771074A7B
:10116000B280E9E7240100D0080D0020AAAA0000FF
:1011700000ED00E0CD01001063E2022001BDFFFFA1
:1011800010B5FFF789FD0100024B1800FFF7FFFCC7
:1011900010BDC0466FE2022010B582B00100074CBE
:1011A000074B0093052300222000FFF7C8FC00280E
:1011B00001DB1F23181A02B010BDC0466FE20220E7
:1011C0003C8D011070B504000E001500FFF7F0FC17
:1011D0000100200000F006F8A680E580BFF35F8FD5
:1011E00070BD0000024B9C4661448900016070475D
:1011F0004000003410B50400FFF7DAFC01002000C5
:10120000FFF7F0FF01235B426360BFF35F8F10BD08
:1012100010B50400FFF7CCFC01002000FFF7E2FF4F
:1012200001235B42636000232372BFF35F8F10BD15
:1012300010B5094C03E02000FFF7DCFF0834074B32
:101240009C4207D22368002BF5D02000FFF7E0FF77
:101250000C34F4E710BDC04688130020981300201A
:10126000034B9C46614489000160BFF35F8F704768
:101270004000003410B504000120FFF7A7FC010076
:101280002000FFF7EDFF10BD30B5846A151B0B1D64
:101290009B001B581B1B9D4204D3046A01238B40F7
:1012A000234202D1043189000A5030BD00040843B2
:1012B00070470000F0B5DE4657464E464546E0B55D
:1012C00087B0EFF3058303221A409246AA4B92009F
:1012D000D7580123524693409946A84B4A461A6074
:1012E0001FE17A6973009B19DB00904698444346DE
:1012F0009C68DD68A24800F00BFC001BA941002996
:1013000000DA16E1002D74DB43461B699B469D4BBA
:101310009B454FD00823F85E4346598889B2FFF7B2
:10132000C5FF43465969D847029003910299039A31
:101330000B00100013435CD013000A00002847DAAA
:10134000A41A9D41009401954346009C019D9C6018
:10135000DD600021595E002900DAEAE078694B007F
:101360005B18DB00C3189A68DB68A41A9D41002D46
:1013700000DADEE039813D000835844604912A0018
:101380000597B346009E019F049B002B2ADB002398
:10139000D45E63001B19DB0063449C68DD68300089
:1013A0003900001BA94100291CDB1A000021595EED
:1013B0000491E9E743465B699B461B695846984799
:1013C000002816D05B461A685B6802920393ADE76B
:1013D0006B4800F09DFB029B039C1B184C41009343
:1013E0000194B1E70499059F5E4643461980168033
:1013F0009FE0434600229B5E3B813A69EFF31083F6
:1014000072B611680029FCD0BFF35F8F02217A5EAB
:1014100041460A807E803A69BFF35F8F00211160E8
:1014200083F3108885E03969EFF3108372B60A6898
:10143000002AFCD0BFF35F8FB88800B2012252426D
:10144000BA803A69BFF35F8F0021116083F310887F
:101450000500BC461CE0049300229A5E002A0EDBC5
:10146000049B0021595E4B005B18DB0063449868C5
:10147000D96834003D00241A8D41002DEBDA04991F
:101480005D46009B9C4644460D800023E55E22801D
:10149000002D12DB634658696C006419E4000419DE
:1014A000A668E7686146083108229A5EAB46049157
:1014B00063460093A0468446D0E767463EE000239B
:1014C000BB71390008310823F85E0EE00124644244
:1014D000E5179460D56008243B5F834204D00E80FA
:1014E00008243B5F138038813000431C29D07C697D
:1014F00043001B18DB00E218E65E53881BB2002B8A
:10150000E4DB1100F0E722002B0051461C48FFF7F6
:10151000BBFE1B4800F0FCFA241A8D41002D22DC92
:101520001FD0174B4A465A630823FE5E002E00DB8D
:10153000D7E6BB881BB2002B00DB74E7BB79002B1E
:10154000BDD10823FA5E002A0DDB796953009B1890
:10155000DB00CB189C68DD68631CD4D16B1CD8D031
:10156000D1E7002CDDD040BF07B0F0BCBB46B2468F
:10157000A946A046F0BDC046CCCB00203C7005403B
:1015800000400540B512001070B504000D001100B8
:101590000126AE4006622800FFF7C4FB01212800A7
:1015A000FFF798FB024B9C466444266070BDC04622
:1015B00038200000F8B5CE46474680B5060089467B
:1015C00090461F00C160FFF7F3FA154B9C4660443C
:1015D0008000306143463370BBB27381D022120663
:1015E00012787270012252423281B2809B1873804D
:1015F000002406E0621E736965002D19ED005A5340
:101600000134BC42F6D3074B42469200D650064AFC
:1016100041464846FFF7B8FFC0BCB946B046F8BDE2
:1016200040000034CCCB0020B512001070B50C0087
:10163000150001238B400362074A9446604403600F
:1016400001212000FFF746FB29002000FFF77AFC6C
:10165000200000F045FA70BD3830000010B5084B8E
:101660001A68EFF3108172B61368002BFCD0BFF339
:101670005F8F034805F098FC0020002110BDC04694
:101680007CE0002000487047500D002070B5050038
:101690000E00182001F056F9041E0ED0182130005B
:1016A00001F066F960610121280000F021FA0200D2
:1016B000330029002000FFF77DFF200070BD0000EF
:1016C00010B50400094B98420FD00178084AC06851
:1016D000FFF7ACFF2278074B92000021D1506069E0
:1016E00001F05EF9200001F05BF910BD500D002003
:1016F000B5120010CCCB0020F8B504000569EFF35B
:10170000108072B629680029FCD0BFF35F8F0221D8
:10171000665E656971008919C9006D18002E02DBCB
:101720000027E95F61802169BFF35F8F00270F60A9
:1017300080F31088002E2CDB0699296107996961D6
:10174000AA60EB606B8801335B04590C002B00D15D
:10175000012169803000FFF7A9FD2169EFF31083B3
:1017600072B60A68002AFCD0BFF35F8FA2882A8075
:10177000A6802269BFF35F8F0021116083F3108878
:10178000E368217801228A4003498C4663441A6049
:10179000F8BD01204042FBE73C20000070B582B05C
:1017A000060014001D0008AB1B78002B07D100F0C9
:1017B000E1F922002B00121A8B41002B0ADB079B58
:1017C0000193069B009322002B003000FFF794FF4B
:1017D00002B070BD0020FBE7F0B5C64600B584B08E
:1017E0000500884616001F000AAB1C78FFF74AFF69
:1017F0000294019700962A004346FFF7CFFF04B0FA
:1018000080BCB846F0BD000030B504000A1443891E
:101810009A422EDA406953009B18DB00C3182569F1
:10182000EFF3108272B628680028FCD0BFF35F8FF8
:10183000588885B20904090C884212D00020236917
:10184000BFF35F8F0021196082F31088002811D048
:10185000E368217801228A4007498C4663441A6074
:1018600008E00649294389B259800123A371012068
:10187000E5E7002030BDC0463C2000000080FFFFAF
:1018800010B50400FFF7FEFE2100FFF7BDFF10BDFD
:1018900040787047F0B583B006000F00962464428C
:1018A000E517A4197D418D4202D803D1844201D9A4
:1018B0000024002500F05EF922002B00121A8B4153
:1018C000002B08DC05D03000390000F065F903B0CA
:1018D000F0BD002AF7D0114A002300932000290010
:1018E000FFF77AFF00280DDAEDE70D4B1A68EFF3EA
:1018F000108172B61368002BFCD0BFF35F8F0848CD
:1019000005F01CFB074B5B6A9D42EED80549896ACE
:10191000A142D8D29D42D6D1E7E7C0465D1600105D
:101920007CE000200040054070B504000D0000F090
:1019300021F900196941002902DBFFF7ABFF70BDF7
:10194000012040420049F8E7FFFFFF7F10B5FA226F
:1019500092000023002100F043FFFFF7E5FF10BDD8
:10196000F0B5CE46474680B583B005000C00EFF3D6
:101970000583002B15D03F4B5B6A8B4209D33D4A50
:10198000926A82420BD28B4201D0012002E00020F9
:1019900000E0002003B0C0BCB946B046F0BD012055
:1019A000F8E7FFF76FFEC3689946037898462E0064
:1019B0002700484600F0ACF802000B00B61A9F4121
:1019C000434604339B004A469B581B1A0022BA42E6
:1019D0000FDC0CD020BF274B5B6A9C422DD8254AD8
:1019E000926AAA422BD29C4225D00120D2E7B34270
:1019F000F0D9214A0023009328002100FFF7ECFED4
:101A000000281EDD1B4B5B6A9C4205D8194A926A6E
:101A1000AA4202D29C4200D120BFFFF731FF154BF2
:101A20005B6A9C4221D8134A926AAA421FD29C4206
:101A300019D00120AEE70020ACE70020AAE7012082
:101A4000A8E70C4B5B6A9C4209D80A4A926AAA42F0
:101A500007D29C4201D001209CE700209AE7002099
:101A600098E7012096E7002094E7002092E7012004
:101A700090E7C046004005405D16001000487047E2
:101A80000040054010B50B4B1B69002B04D00A48E1
:101A90000A21FFF7A7FB10BDFFF7F0FF04000321A9
:101AA00000F00CF80348102303222100FFF782FD09
:101AB000EDE7C046500D00207CE0002010B5024A42
:101AC0000248FFF723F810BD588D0110B41E002006
:101AD00010B50248FFF75BF810BDC046B41E0020E9
:101AE00010B501000148FFF7F3FF10BD00400540AD
:101AF00000B583B00448054B009303230022FFF791
:101B00001EF803B000BDC046B41E00207C8D01103D
:101B10000200436A906A1900536A9942FAD17047E9
:101B2000416A00E0416A9942FCD300E0416A99426F
:101B300002D1816A9142F9D37047F0B5C64600B52B
:101B4000804614001D00FFF7E3FF06000F0022008F
:101B50002B0092197B41994202D804D1904202D9BC
:101B600001225242D3174046FFF7DAFF80BCB84645
:101B7000F0BD000010B50248FFF7CAFF10BDC04617
:101B80000040054010B502000B000248FFF7D5FFEA
:101B900010BDC0460040054010B502000B000248D1
:101BA000FFF7BEFF10BDC04600400540F8B5D64661
:101BB000474680B506000D001700984644002418DB
:101BC000A400294B9C4664446368089A934200D25F
:101BD0006260331FDBB29A46012B2ED9802212019C
:101BE000C0239B01E3181A60204BB200D158002992
:101BF00007D0586900F092FA013043001B18033BEC
:101C0000FDD27F0123685F40E0233B4080225201E8
:101C1000A21813605346012B1AD980239B01E318A5
:101C2000802212011A60089B6360104BB600424686
:101C3000F250C0BCBA46B046F8BD012DCED1032249
:101C4000C0239B01E3181A60A368DB07FCD5D8E723
:101C50002168694003230B401360A3680122AA4056
:101C60001A42FAD0D9E7C04600800040BC1E0020CE
:101C7000F0B583B005000E0017001800089900F0B9
:101C80004DFA0300089A140200943A00310028002B
:101C9000FFF78CFF03B0F0BD10B582B08024640064
:101CA0000094FFF783FF02B010BD0000014B8000DD
:101CB000C0587047BC1E0020F8B504000E00170085
:101CC0001D001E4800F02AFA0100380000F026FA34
:101CD0002D04069B1B031D432368002B1BDB184BA5
:101CE0009C4229D00C2301229A40164B1A60164BB5
:101CF0001A60164B1B6811009943FAD12660A06048
:101D0000134BE218212313602368002BFCDAE560F3
:101D100008231360F8BD22683F231340B342DED18D
:101D2000A3681B051B0D8342D9D1E368EE22D202C2
:101D30001340AB42D3D1EDE70D23D4E7001BB7002E
:101D400000C0024000E0004000F0004008C0004039
:101D500004300000024B1A68024B5A607047C046BC
:101D6000DC3100200080054010B5184B8022D205E0
:101D70001A60174B174A1A6000290AD0164BE02246
:101D8000D2041A60002809D1134B802212061A606F
:101D900010BD0E4BE022D2041A60F3E743011B1A78
:101DA0009B001A18D2000D490A601818000108603B
:101DB00080235B04984201D3094A0A60FFF7CAFFF7
:101DC000054B8022D2051A60E2E7C04600B005400C
:101DD00008200140FCFF010000A00540DC3100208C
:101DE000FFFFFF0010B5030010000C4A8024E4053B
:101DF0001460002B0DD001221343094A094CD46111
:101E0000094C5C401462516293620021FFF7ACFF01
:101E100010BD034B0022DA61F7E7C04600B0054071
:101E200000800540D3C007B02D3FF84F80239B00B2
:101E30000B43014AD36270470080054010B5010092
:101E400018231B8814221088984710BD10B5010074
:101E500018231B8816221088984710BDF0B5C64677
:101E600000B507000E0000250123984600E001356B
:101E7000B5420AD2AC003C192068FFF7DFFF2060B2
:101E80000028F4D100239846F1E7404680BCB846CC
:101E9000F0BD000070B504000D000648FFF7CEFF4E
:101EA0000300002C03DB0120A040290098470020FC
:101EB000FBE7C04655420000074BAA2212011A60F8
:101EC0008D225200DA60054B054A1A60024B5B68AE
:101ED000002BFBDA7047C046004002400060024021
:101EE00000B0FA0010B5040001E008CC9847024B9E
:101EF0009C42FAD310BDC0464C88011070470000C8
:101F000010B50148FEF7CEFD908D011010B50248C6
:101F1000FFF7E8FF10BDC04610880110054B064AC8
:101F20001A60064B064A1A60064B1A68044B934324
:101F3000FAD1704700E00040BFCDFBFE00F000404A
:101F4000FE7F3C0008C00040044BDB6C002B03D13B
:101F5000034B8022D2021A607047C0460000115025
:101F60004C201150044B054A1A60054B1B68DB439B
:101F7000DB01FAD17047C04600F00040FFFFFF01CF
:101F800008C00040034B40229A675A671A67DA6616
:101F90007047C04600F0014010B5FEF729FE10BDA5
:101FA00070B5044DA968044CC022200000F016FD55
:101FB000AC6070BD00ED00E00000002070B50420B2
:101FC000FFF774FE064900F0A9F805000024002C74
:101FD00000DD70BDE0B22900FFF728FF0134F6E70D
:101FE00040420F0030B583B0274B00229A67FFF7BD
:101FF00063FF264B01221A60234B5B6C012BFBD144
:10200000234B03221A60204B9B6B012BFBD1013326
:10201000009304331F4A01211F48FFF74DFE05239B
:1020200000931E4A01211E48FFF746FE1D4B002269
:1020300002210420FFF730FE1B4D2B00002201215E
:102040000520FFF729FE194C23000022002107205C
:10205000FFF722FE2300002200210820FFF71CFECC
:102060008023DB0000932300002200210920FFF7DA
:10207000FFFD2B00002200210620FFF70DFEFFF7D9
:102080009DFF03B030BDC046008000403CB0004022
:1020900030B00040002F685900800240008C864715
:1020A00000C00240001BB70040597307006CDC02FF
:1020B00001480421014B1847700D00205D1E0010DF
:1020C000014B9B6818470000700D0020124A936F67
:1020D0009B0815D29066D166002905D0FFE7FFE77F
:1020E000FFE7516F106F704704B580210906C217D2
:1020F0005140002800D0C84316F012FB002104BD57
:10210000F0B5146E556E576F166FFFF7E3FF146648
:10211000556657671667F0BD000000D0114A936FEF
:102120009B0813D210665166002905D0FFE7FFE730
:10213000FFE7516F106F704704B5002801D00020F1
:10214000C04316F0EDFA002104BDC046F0B5146E90
:10215000556E576F166FFFF7E5FF146655665767A4
:102160001667F0BD000000D094464A4A926F92086C
:10217000624601D228E0C046F0B5464E346E756E18
:10218000776F366F00F020F89446424A1466556621
:10219000576716676246F0BD94463E4A926F9208B2
:1021A000624601D254E0C046F0B53A4E346E756EC8
:1021B000776F366F00F04CF89446364A14665566D1
:1021C000576716676246F0BD002B24DB11D000294B
:1021D0003EDA00B5C943404200D1013100F038F881
:1021E000C943404200D10131DB43524200D10133A7
:1021F00000BD002AEBD1002801D1002905D0002024
:10220000C90FC90701D1C043410800B516F078FADB
:102210000022002300BD00B500290ADBDB43524247
:1022200000D1013300F014F8C943404200D101311C
:1022300000BDC943404200D10131DB43524200D1CD
:10224000013300F005F8DB43524200D1013300BDF9
:10225000002923D1002B18D1002A0CD0BC460D4FE9
:1022600038667A6600210023FFE7FFE7FFE77A6F11
:10227000386F67467047002801D00748010000B555
:1022800016F03EFA0022002300BD02000B000020E1
:1022900000217047000000D0FFFFFFFF002B00D09F
:1022A000BFE0130C28D1002AE7D080B4114F396663
:1022B0007A66FFE7FFE730B4040C7B6F396F1B04CD
:1022C00023433B667A66FFE7FFE7FFE7C04684B239
:1022D0007B6F3D6F1B0423433B667A66FFE7FFE796
:1022E000C04600232C042D0C7A6F386F0019694109
:1022F000B0BC7047000000D0F0B594460025140E25
:1023000001D112020835140F01D112010435940FC6
:1023100001D192000235D40F01D152000135D40B06
:102320000134254F7C66254C3C660E0C93B2FFE7CA
:10233000FFE7FFE73C6F6643360C7703BE46734307
:10234000DF0B5B04C01AB941130C7343DB18C91AC5
:10235000CE086643360CB64493B273431F0F1B017D
:10236000C01AB941130C73431F0B1B05C01AB941A6
:10237000860D8F023E436643360C092D24DB520A3C
:102380007243801A7703460A6643360C16235B1B9A
:10239000DE40DF40BF1964466643821B7046043549
:1023A00006330100D940A840C01900D30131A24230
:1023B00006D20023F0BD0000000000D0FFFFFFFFA9
:1023C000121B0130F3D3F1E709277F1BFE4064465F
:1023D000A2B27243801A00D20139220C7243130C4C
:1023E0001204821A99410B0070460435133701001C
:1023F000F940A840801900D30131002B02D1A2423C
:102400000AD2F0BD013000D30131121BFAD2013BD8
:10241000F8D1A24200D2F0BD013000D30131121B2D
:10242000F7E7F0B51C0C00D080E00CB400251C0AC6
:1024300004D11B02160E3343120208351C0B04D1C3
:102440001B01160F3343120104359C0B04D19B0072
:10245000960F334392000235DC0B02D192185B4198
:1024600001351C00971864410134464F7C66464C88
:102470003C660E0CFFE7FFE7FFE7C0463C6F664394
:10248000360C7703BE4697B27743C01B00D20139A2
:10249000C01B00D201399FB27743C91BC91B170C5F
:1024A00077437E04FF0B801BB941CE086643360C90
:1024B0000C2D33DBB644120B1F053A431B0B97B2AE
:1024C0007743C01B00D201399FB27743C91B170C59
:1024D00077433E043F0C801BB941860D8F023E437B
:1024E000664329277F1BFE400C3D7746AF40BF194E
:1024F00030BCA2B2ABB272437343801A9941220C32
:102500007243130C1204801A994102000B00013728
:10251000001BA941F9D2781E0021F0BD0C277F1BBA
:10252000FE4077467F0BAF40FF19E0E700245D1CBB
:1025300007D0144F7D663966FFE7FFE7FFE7FFE747
:102540003C6F95B29EB265436643401BB141150C8A
:102550001E0C6543664336042F0C3E432D04401B7E
:10256000B141994204D202000B0020000021F0BDCD
:1025700001D19042F7D3801A994101349942F2D3A4
:10258000F6E70000000000D0FFFFFFFF4840414099
:10259000484018B4134B5B68019308BD18B4114B45
:1025A0001B68019308BD94460F4A926F920805D2AA
:1025B000624618B40B4BDB68019308BD0A4AF0B5BC
:1025C000146E556E576F166F6246FFF7F2FF064A9C
:1025D0001466556657671667F0BD18B4014B9B68C3
:1025E000019308BD74DE0020000000D0FFB550400C
:1025F0004240504059404B40594000E0FFB5154F14
:102600004C00640D03D0BC4204D10C0314D800204C
:10261000090D09055C00640D03D0BC4204D11C0304
:102620000AD800221B0D1B0501264B4009D44B4044
:1026300003D58B4200D18242FFBD9942FCD190422A
:10264000FFBD0B43DB1803431343F5D0C9434918BF
:10265000FFBD0000FF07000000B5FFF7CFFF80417E
:1026600000BDC04600B5FFF7C9FF01D9002000BD7D
:10267000012000BD00B5FFF7B9FF01D9002000BD62
:10268000012000BD00B5FFF7B1FF804100BD012072
:1026900040054A00121804D85A00121801D8002028
:1026A00070470120704700000021002805D17047C5
:1026B000C1174840401AFAD0C90713B5064B1B682A
:1026C00098470CBC441CA2401005120B0349091B7F
:1026D00009051943114310BD78DF00201F040000D5
:1026E00010B54C00620D8023D218DB00D21A5B05B6
:1026F0007E2A10DD9E3A13DACC17090349081943E4
:102700005242D140640001341532202A05DAD0400B
:102710000843604310BD002010BD0846604310BD53
:10272000C80FC018013810BD18B4024B5B6A019382
:1027300008BD000074DE002010B50148FEF7B2F9B4
:102740009C8D011070B513231C78012C12D0012C24
:1027500012DC114B114A93641148FFF76FFB114BC8
:10276000186070BD10490D4A9800815001331F2B2D
:10277000F8D9ECE70023FAE70C48FFF767FB050000
:102780000B48FFF763FB05488022290000F026F97B
:10279000022CE1DCDDE7C046B527001074DE002026
:1027A0004C33000078DF002039270010534400002C
:1027B0005346000007B5604601880A0A0230DF2A46
:1027C000FAD1C9B2820804D30288408800041043B9
:1027D00000E00068014A5050039007BD74DE0020FD
:1027E00051434343C9188C46110C83B24B4310B478
:1027F000040C614392B280B2504362431C041B0C30
:10280000001910BC59411304120CC0185141614405
:10281000704700004840414048400E4B5B681847F5
:102820000C4B1B6818470C4A936F9B0802D2094B4C
:10283000DB681847F0B5146E556E576F166FFFF7CB
:10284000F6FF054A1466556657671667F0BD014BDB
:102850009B6818477CDF0020000000D0C10FC9072B
:1028600000D54042002817D0F44603B40B4B1B6838
:10287000984706BC81409E384042803107D20B0603
:1028800007D04900490AC00510430843604701309A
:10289000F8E7490A8902F5E77047000078DF002071
:1028A000014BDB6F184700007CDF002010B50148AA
:1028B000FEF7F8F8FC8C011070B513231D7814484E
:1028C000FFF7C4FA0400012D07D0012D19DC1148CF
:1028D000FFF7B4FA104B186070BD10485422210065
:1028E00000F07CF8002300E001331F2BEDD80B4AE9
:1028F00099008A58002AF7D10949084A980081505E
:10290000F2E706488022210000F068F8DFE7C046C1
:10291000534600004C33000078DF00207CDF0020AD
:10292000AD28001010B5002804D04018034B984281
:1029300000D810BD0248FEF7B5F8C04600000420DC
:10294000B48D011070B50500084E300015F050FF31
:10295000280015F01FF90400300015F0C9FE290009
:102960002000FFF7DFFF200070BDC0468813002065
:10297000F8B506000C00094F380015F039FF2100AA
:10298000300015F0A7F80500380015F0B1FE210061
:1029900071432800FFF7C6FF2800F8BD8813002008
:1029A00070B50400054D280015F022FF200015F039
:1029B000FBF8280015F09CFE70BDC046881300206F
:1029C00001480421014B1847800D00205D1E0010B6
:1029D000014B1B6818470000800D0020014B5B680D
:1029E00018470000800D00209A4200D2885470479A
:1029F000704710B5002802D00B684968984710BD91
:102A00000100002007E083001B185B00501C0860D9
:102A10001078C01830380A681378303BDBB2092BC5
:102A2000F1D97047F0B5DE4657464E464546E0B50B
:102A300083B093461F000C9B9A460D9C0E9B9946B3
:102A40000F9B9B0717D0B8460F00060022E0551CCD
:102A50004B4641462020B84701342A00B442F6D301
:102A60003D004F465C46019B9B46B1464646B846F4
:102A700037002E000EE00192A34688464E46B94626
:102A80000700EBE7013C551C5346185D43463900EF
:102A9000B0472A00002CF5D135003E0047460F9B79
:102AA0009B0711D4100003B0F0BCBB46B246A94648
:102AB000A046F0BD541C4B4641462020B84722009A
:102AC000531BB342F6D3EDE7B0464E46B9462F004E
:102AD0005D46F5E7F0B5CE46474680B585B09446ED
:102AE00098460C9D0D9C0EAB1B789946109A119B35
:102AF000129EB7071CD4002B0CD0F7070AD54F46FF
:102B0000002F02D10C37374204D0013B02E03027BE
:102B10002F550134944201D21F2CF8D9F70707D55D
:102B20009C4205D21F2C03D830272F550134F5E7DE
:102B3000F70612D5770505D4002C03D0944221D096
:102B40009C421FD00F9A102A2FD00F9A022A36D0FB
:102B50001F2C0AD830222A5501341F2C05D84A468A
:102B6000002A32D02D222A55013403960293019473
:102B7000009543466246FFF755FF05B0C0BCB94615
:102B8000B046F0BD621E012C17D00F9F102F0BD046
:102B900014000F9A102AD8D1B206D6D51F2CD4D83B
:102BA00058222A550134D3E7023CB206F1D41F2C37
:102BB000EFD878222A550134CAE71400C2E71F2C47
:102BC000D3D860322A550134C2E7720703D52B22CD
:102BD0002A550134C9E73207C7D520222A550134C6
:102BE000C3E7F0B5DE4657464E464546E0B593B0DE
:102BF00081468A46089209931CAB10CB1B789B46F2
:102C00001E9D219B9846002C03D1102342469A43D7
:102C100090468023DB0046461E4042461A4218D0AA
:102C2000002C22D0002614E0424692061BD54121FA
:102C3000C918C9B20A39C9B2771C0AAB995529001B
:102C40002000FFF76BFAAC4210D31F2F0ED83E00C6
:102C5000040029002000FFF761FACBB2092BE3D86A
:102C60003033D9B2E8E76121E2E727004346069313
:102C7000209B05931F9B049303955B46029301974A
:102C80000AAB0093099B089A51464846FFF722FF7A
:102C900013B0F0BCBB46B246A946A046F0BDF0B5A5
:102CA000DE4657464E464546E0B597B00A900B9132
:102CB0000C929A46209B9946219F22AA13789B4604
:102CC000249B0993259C289B98464A463A4302D167
:102CD0001032934398468022D20045461540434621
:102CE00013420AD04A463A4341D000252E005346AB
:102CF0000D934D46099B9A4621E02E0053460D93B5
:102D00004D46099B9A461AE04246920623D5412237
:102D1000D218D2B20A3AD2B2731C99460EAB9A5567
:102D20005246230028003900FFF736FABC4220D86B
:102D300013D04B461F2B16D84E4605000F005246A7
:102D4000230028003900FFF727FAD3B2092BDBD87C
:102D50003033DAB2E0E76122DAE7AA45E9D94E4634
:102D60000D9B9A4608E04E460D9B9A4604E00026CD
:102D700002E04E460D9B9A4643460693279B0593D9
:102D8000269B0493099B03935B46029301960EAB2B
:102D9000009353460C9A0B990A98FFF79BFE17B0C5
:102DA000F0BCBB46B246A946A046F0BDF0B5DE4633
:102DB00057464E464546E0B591B0804689460C924E
:102DC0009A461A9C1B9D22002B0020002900FFF729
:102DD0005EFC002800D0F2E001225242D54B2000D8
:102DE0002900FFF74FFC002800D0E8E00122524202
:102DF000D14B20002900FFF72FFC002800D0DEE097
:102E00000022002320002900FFF726FC002800D024
:102E1000EAE0069407958023DB001E9A1A400D9283
:102E20001E9A1A4201D106231C93069807990200A4
:102E30000B000892099303000A00024300D1DFE06F
:102E4000080D4005400DBD4EB4466044079E320358
:102E5000120B1E00BA4B13431F00FFF729FCB94A9F
:102E6000B94BFFF7BAFBB94AB94BFFF797FB08908C
:102E700009910022B74B30003900FFF78AFBB64AB0
:102E8000B64BFFF7AAFB02000B0008980999FFF761
:102E900085FBFFF725FC8346FFF70AFC06000F00C1
:102EA000AF4AB04BFFF799FB0022AF4BFFF776FB21
:102EB000FFF716FC0890AD4AAD4B30003900FFF724
:102EC0008CFB06000F000898FFF7F2FBA94AAA4BFB
:102ED000FFF783FB02000B0030003900FFF759FBBE
:102EE00006000F0002000B00FFF777FB0A900B9122
:102EF000089BA24A9446634400210022089109924B
:102F00001B0509930023089332003B003000390071
:102F1000FFF744FB0E900F9132003B000020802110
:102F2000C905FFF736FB06000F000022944B0A98F4
:102F30000B99FFF738FB0022924BFFF72FFB0200A3
:102F40000B000A980B99FFF72EFB00228E4BFFF720
:102F500025FB02000B000A980B99FFF724FB0200E7
:102F60000B0030003900FFF719FB02000B000E9830
:102F70000F99FFF718FB0022714BFFF70FFB089A20
:102F8000099BFFF72AFB06000F0008960997069A8F
:102F9000079BFFF777FB00280BD001235B429C4681
:102FA000E3440022774B30003900FFF7FCFA089029
:102FB00009915B466333C62B45D8042623E01E9B4C
:102FC00004931D9B03931C9B02930094019553460D
:102FD0000C9A4946404600F0FBF811B0F0BCBB46E5
:102FE000B246A946A046F0BD0021002206910792F4
:102FF000069480231B069C46AC44634607930AE76D
:1030000000239B4604261E9B1B0528D5089A099B76
:10301000190011430FD05D4A5D4B06980799FFF7E1
:1030200029FB00287AD000225A4B06980799FFF70F
:1030300013FB002872D01C9B5B4506DD5A469B1A89
:10304000013B1C9303E00526DDE700231C9380234E
:10305000DB001E9A1A431E92002600239B461D9BEE
:103060009E4265D29F1B02231E9A1A400A921E9A04
:10307000134202D0002E00D000275B46002B07D061
:10308000089A099B06980799FFF78DFA0690079111
:103090000022002320002900FFF7DEFA002800D0DC
:1030A0007CE03D4B1E9A1340049303971C9B0293B4
:1030B000069B079C0093019453460C9A4946404650
:1030C00000F086F8002E00D187E71E9B9B0671D585
:1030D0004525441C5346020049462800C0475A462D
:1030E000D317D2185A4005230593013E04960023B6
:1030F00003930A3302935B46DB0F0193009253461E
:10310000220049464046FFF76CFD0A9B002B00D188
:1031100063E7020047460C9E1D9D53E01C9B002B5D
:103120009DD00D9B002B9AD01C9B013B1C9396E7D6
:10313000002798E7FFFFEF7FFFFFEFFF01FCFFFF96
:103140000000F03FFB799F501344D33FB3C8608B1E
:10315000288AC63F0000F83F61436F63A787D23FCC
:1031600071A379094F930A400000E03F1655B5BBA3
:10317000B16B0240EF39FAFE422EE63FFF0300003A
:1031800000002C4000002440000018402D431CEBA0
:10319000E2361A3F80842E41FFF7FFFF069C079D11
:1031A0002200290080200006844661440B0006921C
:1031B000079376E765258CE7541C53464946202043
:1031C000B8472200931BAB42F6D3100005E7C04678
:1031D000F0B5DE4657464E464546E0B595B00690FA
:1031E000079193469946209F1E9A1F9B1000190035
:1031F000FFF74DFA002831D101225242BC4B1E98F4
:103200001F99FFF729FA002837D101225242B94B02
:103210001E981F99FFF736FA00283DD10022B64BC1
:103220001E981F99FFF72EFA00284AD10022B34BAF
:103230001E981F99FFF710FA002842D100220023A0
:103240001E981F99FFF708FA00284AD100239846D4
:10325000229B5B0500D4B0E0002452E0229B039344
:10326000219B029303230193A54B00934B465A469F
:1032700007990698FFF7D6FB08E1229B0393219B51
:103280000293042301939F4B00934B465A460799A0
:103290000698FFF7C7FBF9E0229B5B070ED59A4B18
:1032A00004222299039121990291019200934B46A5
:1032B0005A4607990698FFF7B5FBE7E0934B0322C0
:1032C000EFE7229B0493219B039302971E9B1F9C75
:1032D000009301944B465A4607990698FFF766FDFE
:1032E000D4E01E9A1F9B00200021FFF752F91E9088
:1032F0001F9101239846ABE70CAB30221A55013FD2
:1033000001341F2C01D8092FF6D81E981F99FFF7FA
:10331000E7F90500FFF7CCF902000B001E981F9992
:10332000FFF737F97A4BFA009B181A685B680A9224
:103330000B93FFF752F908900991FFF7F5F9060092
:10334000FFF7B2F902000B0008980999FFF721F97D
:103350000890099100226F4BFFF794F900282ED0B6
:1033600001363000FFF7A0F902000B000A980B9914
:10337000FFF778F9002801D001350026002F2CD165
:103380002800FFF795F902000B001E981F99FFF720
:1033900000F906000F0000225E4BFFF75DF90028E0
:1033A00046D100225B4B30003900FFF76BF9002853
:1033B0003ED1EB073CD501353AE006274CE7002229
:1033C000544B08980999FFF747F90028D6D1002EE9
:1033D00001D0F307D2D50136D0E7AA461F2C11D869
:1033E000013F0A213000FEF799FE651C30310CAB1D
:1033F00019550A213000FEF791FE092E0ED906005C
:103400002C00EBE755461F2C0CD87B1E002F09D053
:103410000CAA302111551F000134F4E72B0055464A
:103420001C00F0E71F2C03D80CAB2E221A550134D8
:103430001F2C10D80A212800FEF748FE661C3031E8
:103440000CAB19550A212800FEF740FE051E01D0DD
:103450003400EDE734000323229A1340012B1CD0E3
:103460001F2C06D84346002B32D00CAB2D221A5508
:103470000134229B0393219B029301940CAB009394
:103480004B465A4607990698FFF7CCFA15B0F0BCA0
:10349000BB46B246A946A046F0BD219B002B13D0E7
:1034A0004346002B02D10C3313420FD0219B013B2A
:1034B0002193190003E00CAB30221A5501348C42E1
:1034C000CED21F2CF7D9CBE72199F8E72199F6E75F
:1034D000229B5B0704D50CAB2B221A550134C8E79D
:1034E000229B1B07C5D50CAB20221A550134C0E71F
:1034F000FFFFEFFFFFFFEF7F65CDCD4165CDCDC174
:103500000C8E0110108E0110008E0110088E01101B
:1035100018B601100000E03FF0B5DE4657464E46B3
:103520004546E0B593B007008A4693461193BB4BDE
:10353000BB4A1A60002900D130E3002508E06C1C6A
:103540005B462A005146B847119B01331193250071
:10355000119B1878002800D122E32528EFD10133F0
:1035600011930023180020E0012318430132119227
:10357000012418E00223184301321192012412E0C1
:10358000042318430132119201240CE0082318434C
:1035900001321192012406E01023184301321192E6
:1035A000012400E00024002C09D0119A1378203B5C
:1035B000D9B21029F6D88B009A49CB589F4681463C
:1035C000119B1A781300303BDBB2092B10D92A2A41
:1035D00013D00B94119B1A782E2A20D0119A1378AD
:1035E000683BD9B2122965D88B008F49CB589F46CA
:1035F00011A8FFF705FA0B90ECE71C9B1A1D1C9213
:103600001B68002B04DB0B93119B01331193E1E743
:1036100002220100114389465B420B93F4E78022AA
:10362000D2004946114389465A1C11925A78130018
:10363000303BDBB2092B0BD92A2ACFD11C9B1A1D98
:103640001C921C68002C08DB119B01331193C5E709
:1036500011A8FFF7D5F90400C0E70024F4E78023A0
:103660005B0049460B43511C119151786C2901D0E4
:1036700099461FE0C0239B00494619438946023200
:10368000119217E0802349460B43511C1191517848
:10369000682901D099460DE0C0234946194389465F
:1036A0000232119206E080235B00494619438946A5
:1036B00001321192119B187867281CD8252800D256
:1036C00062E20300253BDAB2422A00D95CE29300B1
:1036D000564AD3589F4680239B0049461943894642
:1036E00001321192E6E780235B004946194389467F
:1036F00001321192DEE7782800D945E2692800D22C
:1037000042E20200693AD2B201239340484A13428E
:1037100010D11A0600D510E25B0500D434E21C9BE0
:103720001A1D1C921E68002C00D0BEE101225242DC
:1037300033009AE16F2842D005D8582841D062283A
:1037400003D1022606E078283DD010234A469A434A
:1037500091460A26582838D0692805D0642803D015
:103760000C224B46934399464B465A0502D50122FB
:103770009343994669282DD064282BD04B469A054F
:1037800000D5AEE0DA0500D5C6E05A0600D4D7E091
:103790001C9A111D1C911168FF220A404B4605938B
:1037A0000B9B0493039402960023019300925B46C3
:1037B0002A0051463800FFF714FA05002AE00826CF
:1037C000C8E71026C6E71026C4E720224B4613435D
:1037D0009946C1E74B469A052CD4DA055DD45A06C2
:1037E00072D51C9A111D1C911168FF220A40D01736
:1037F000111841404B4605930B9B0493039402968A
:10380000D20F019200915B462A0051463800FFF723
:10381000E8F90500119B0133119399E6D43100209A
:10382000193500107CB40110C0B401100CB50110A2
:10383000419000001C9A073207218A431100083189
:103840001C91116853689C46DB170C930D930C9ADE
:103850000D9B100048400E900D9B61464B400F930E
:103860000E980F990C9A0D9B801A99410E900F910A
:103870004B4608930B9B07930694049600230593ED
:103880006346DA0F0292009001915B462A0051468E
:103890003800FFF704FA0500BCE71C9A111D1C91C3
:1038A0001268D0171118414005930B9B04930394A1
:1038B0000296D20F019200915B462A0051463800D1
:1038C000FFF78FF90500A5E71A0605D51C9A111D0B
:1038D0001C910023D25E8AE71C9A111D1C9112686C
:1038E00085E71C9A073207218A43110008311C9191
:1038F00008930B9B07930694049600230593029369
:1039000053681268009201935B462A0051463800C2
:10391000FFF7C5F905007DE71C9A111D1C91059361
:103920000B9B049303940296002301931368009366
:103930005B462A0051463800FFF753F9050069E756
:103940001A0606D51C9A111D1C9112681204120C3D
:1039500024E71C9A111D1C9112681FE746281AD0F3
:103960001C9B0733072293431A0008321C924A46D5
:1039700004920B9A039202941A685B680092019376
:103980005B462A0051463800FFF722FC0500119BD8
:1039900001331193DCE520234A461A439146DFE7C1
:1039A000672801D0472804D180231B014A461A43C7
:1039B0009146452801D0472803D120234A461A437F
:1039C00091461C9B0733072293431A0008321C922E
:1039D0004A4604920B9A039202941A685B6800921A
:1039E00001935B462A0051463800FFF7DFF90500D6
:1039F000119B01331193ABE502234E461E404A460C
:103A000013421ED001241C9B1A1D1C926A1C904656
:103A100018785B462A005146B847002E14D1119BF6
:103A200001331193454693E5551C5B4651462020D2
:103A3000B84723002A005C1C0B999942F4D8150062
:103A4000E1E701232A00F6E7424606E0561C5B4602
:103A500051462020B8472C003200651C0B9BA34226
:103A6000F4D89046DBE701330A001978002902D028
:103A7000511E002AF7D19B1B8022D20049461140DB
:103A800088464946114202D0A34200D923000222AF
:103A900049461140109149460A4208D02A002500A3
:103AA00099463B004746984626E0220040E6A1465C
:103AB0002A005146B2460E0006E0551C5B46310016
:103AC0002020B84723002A005C1C0B999942F4D8A7
:103AD000150022004C46330056469A4691462A006D
:103AE00025003B004746984606E01D000136541C61
:103AF0005B465146C04722003078002804D0002F92
:103B0000F4D06B1E002DF0D115004B464746109A9D
:103B1000002A03D1119B0133119319E50B9E2A0052
:103B200006E0551C5B4651462020B84723002A007A
:103B30005C1C9E42F5D81500ECE721234A461A4347
:103B400013001C9A111D1C911268059308230493FD
:103B50000394083302930023019300925B462A00EA
:103B600051463800FFF73DF80500119B01331193D2
:103B7000EEE46C1C5B462A0051462520B847119B99
:103B8000013311932500E3E46C1C5B462A00514687
:103B9000B847119B013311932500D9E4094FCCE4B8
:103BA0005D450DD35B465A1E5B4651460020B84723
:103BB000280013B0F0BCBB46B246A946A046F0BDF3
:103BC0002A00F1E7F129001010B500F089F910BDC5
:103BD00010B5002800D110BDFFF7F6FFFBE700008D
:103BE0000CB430B585B00A0008AC08CC0394054D80
:103BF000009401002800FFF78FFC05B030BC08BC22
:103C000002B01847E929001010B584B00C0002A9D1
:103C100002904C6001240448009313006242FFF7B5
:103C20007BFC04B010BDC046F329001010B584B071
:103C30000300084A1468002C08D0012206480091AD
:103C4000524203A9A047012004B010BD00F056F96C
:103C50000020F9E7D4310020D13B001000BEFDE781
:103C600003000A4A1268002A08D0084A1068C318DC
:103C7000074A9A4206D3054A13607047034A05492A
:103C80001160F2E701204042F7E7C046A82D00206E
:103C90000000042070E2022010B5FFF7DFFF0000F3
:103CA00010B5FEF733F9044C01E008CC9847034BFC
:103CB0009C42FAD310BDC0464C8801105C880110AC
:103CC00010B50300080011001B68984710BD0000E4
:103CD000F8B507000D001600437D002B02D000242C
:103CE00000200CE003681100280098472DE03B7D80
:103CF00010E03B68154802219847601C0134B4422B
:103D000014DA002CF3DD2B19013B1B780D3B5A42D2
:103D10005341DBB22A5D0A2AF0D1002BEED1A0423A
:103D2000E7DA3B68211A28189847E2E7B04203DA3D
:103D30003B68311A28189847002E06DDAD19013D61
:103D40002B780D3B5A4253413B75F8BD68B60110C4
:103D500070B505000368002B16D00C4B1C6805E0FD
:103D6000290004C92000FFF7B3FF2469002C09D003
:103D70002368002BF9D0064B1B68002BF0D0A34220
:103D8000F3D1EDE700232B6070BDC046942D0020D9
:103D9000A02D002070B505000C000B68802B05D00D
:103DA00023685A1C2260E418257170BD0800FFF7D3
:103DB000CFFFF5E710B5FDF7DDFE074A0023121827
:103DC0004B41002B03DB054814F0DAFC10BD012247
:103DD0005242034BF7E7C04640420F0090130020C9
:103DE000FFFFFF7F10B5024814F082FC10BDC046F3
:103DF00090130020F0B5CE46474680B583B006004C
:103E00000D0090461C00FFF7D5FF81466B1C05D0C6
:103E1000002C08D0184F194B1C6807E0300014F034
:103E2000D5FA0500F4E7164FF5E72469002C17D002
:103E30002368002BF9D0134B1B68002B01D0A34241
:103E4000F3D12A0031002000B8474346002BECD0C4
:103E50006B46D91D0A230B7001222000B847E4E706
:103E60004B46002B05D1280003B0C0BCB946B04674
:103E7000F0BDFFF7B7FFF6E7D13C0010942D00200E
:103E8000C13C0010A02D00200A4A136802E01A006D
:103E900010321B69002B09D013688342F7D1002927
:103EA00007D1036913600023036102E0002900D0F9
:103EB00010607047942D002010B5064B1C6800E080
:103EC0002469002C04D06368002BF9D09847F7E7E9
:103ED00010BDC046942D002010B500F0D5F910BDDE
:103EE00010B582B004006B46D81D04700123002277
:103EF0000121FFF77FFF200002B010BD70B5050063
:103F000014F064FA04000123012201002800FFF7E5
:103F100071FFFFF7D1FF200070BD0000F0B5A3B026
:103F200004000E00FFF746FF050001AF00230193D8
:103F30000948330022003900FFF766FE040038000C
:103F4000FFF706FFFFF7B8FF002D02D1200023B0D6
:103F5000F0BDFFF747FFF9E7953D00100FB400B53E
:103F600083B004A901C90191FFF7D8FF03B008BCD1
:103F700004B0184770470000014B00221A707047C8
:103F800064E202204B79FF2B0CD18B79002B0BD1F3
:103F9000CB79012B0AD1082A0AD98A78054B1A70E5
:103FA000092000E0002070470020FCE70020FAE72D
:103FB0000020F8E764E202200120704710B50129D3
:103FC00027D1117953791B020B43134909788B428E
:103FD00001D000201EE05378012B03D0022B11D01A
:103FE000002017E09178D3781B021943DB0506D532
:103FF000480A8A05D20F7F231940FDF74BFF0120A5
:104000004042F6E7642200210020FDF7EBFE01208C
:1040100000E0012010BDC04664E202200048704765
:1040200034B7011010B51400012910D15378012BB9
:104030000FD1127963791B021343072B01D00020A3
:1040400006E0054A9F33210001F002FB00E0012059
:1040500010BD0020FCE7C0468CB6011001230370A0
:10406000004870476CB6011010B50A784B781B02F7
:1040700013438A7812041A43CB781B061343962203
:10408000D200934200D010BD012000221100404216
:10409000FDF700FF024B1860024B19607047C046E5
:1040A000A81E0020AC1E002010B5FDF763FD0E4ACF
:1040B000002312184B41002B12DB0C4814F060FB5C
:1040C00000280CD001200021404201F08DF9002091
:1040D00001F026FC0028F5D1044814F009FB10BDBE
:1040E00001225242024BE8E740420F00BCE00020B0
:1040F000FFFFFF7F10B5024B1878FCF7F5FD10BDF0
:1041000065E202200268EFF3108172B61368002B9B
:10411000FCD0BFF35F8F41607047000070B5144B57
:104120001B68002B1AD0124C2000FFF7EBFF114B3D
:1041300000221A7021686368BFF35F8F0A6083F3FF
:104140001088002400250C4B1878FCF7A9FD0028E6
:1041500008D1002400252000290070BDFA24A40005
:104160000025F0E7044B1878FCF7BEFDF3E7C046E6
:10417000C4CB002067E2022065E20220F0B585B0E2
:10418000060014001D000CAB1F78FDF7F3FC2200A5
:104190002B0012184B41002B09DB02970B99019160
:1041A0000A9900913000FDF7F9FA05B0F0BD01223F
:1041B0005242014BF1E7C046FFFFFF7FF0B5C64614
:1041C00000B584B00500884616001F000AAB1C78B5
:1041D000FDF758FA0294019700962A004346FFF72C
:1041E000CDFF04B080BCB846F0BD000010B582B071
:1041F0001F48002114F0ACFA002818D11D4B1B6891
:10420000002B12D01B4C2000FFF77CFF1A4A1378BA
:10421000DBB20121117021686268BFF35F8F00205B
:10422000086082F31088002B17D002B010BD012067
:104230000021404201F0D8F8002001F049FB0400C1
:104240000B4814F055FA002CEFD00C4B1B68002BD8
:10425000EBD00B4A10689847E7E70A4A013300930E
:104260000023FA2080000021FFF7A8FFDDE7C04609
:10427000BCE00020C4CB002067E20220A81E002082
:10428000AC1E00201D41001010B582B0D0231B06CB
:104290001C68FDF7F7F9FDF7FBFAA04203D00024F4
:1042A000200002B010BD234B1B780021002001F03C
:1042B000F9FF214B1B68002B24D00120FCF76CFF79
:1042C0001E4C20701E49FF231840FCF72BFD207860
:1042D0000121FCF7FFFC0520FCF716FD041E15D09C
:1042E0000120FCF773FC0100164B1800FCF7B8FF27
:1042F000154900220520FCF735FD14480121FFF780
:10430000C3FDCDE70C48FCF775FFD6E70D48082242
:104310000021FEF75DFB0E4A012300930023FA20E3
:1043200080000021FFF74AFFC043C40F0028B7DA1E
:10433000E3E7C046C0330510BCE0002065E2022080
:10434000ED410010C4CB0020F5400010900D00207E
:104350001D41001010B5002001F09EFA10BD0000B4
:1043600070B505000C00FFF7F5FF002834D00020E1
:1043700001F0AEFA002832D0FDF7FCFB1B4A002307
:1043800012184B41002B19DB194814F0F9F90028D9
:1043900028D0FFF7DFFF002804D0002001F098FAB2
:1043A00000280FD101200021404201F01DF8032414
:1043B00064420F4814F09CF9200070BD0122524263
:1043C0000C4BE1E722002900002001F08DFA041EC9
:1043D000EFD103246442ECE703246442ECE70324B6
:1043E0006442E9E703246442E6E7C04640420F0026
:1043F000BCE00020FFFFFF7FF0B5C64600B5804659
:104400000C00FDF7B7FB314A002312184B41002B7B
:1044100007DB2F4814F0B4F9002806D180BCB84659
:10442000F0BD012252422B4BF3E7FFF793FF002828
:1044300049D1294B0020002118605960244814F00C
:1044400057F9EBE701200021404200F0CDFF0020AA
:1044500001F066FAFFF77EFF0028EFD0002001F0A0
:10446000DBFA002820D0A542E8DA661B002001F024
:10447000D3FA0200864200DC3200002AE2D0434632
:104480005919002001F0A4FA060001200021404241
:1044900000F0AAFF002001F043FAAD19FDF76AFB16
:1044A0000D4B18605960DEE7FDF764FB0A4B1E6890
:1044B0005F680A4A002392197B419942BED8D2D143
:1044C0009042D0D9BAE70025CDE7C04640420F0060
:1044D000BCE00020FFFFFF7F6815002020A107003F
:1044E00000487047D0B70110004870477CB70110F2
:1044F00010B50400154B1B78002B0ED0002C11D1E9
:10450000134B144A5A80012301335B009BB21048BD
:10451000C02292001343038010BD0C48112100F00B
:104520002DF8EBE7052C0ED80B4BA400E458002324
:10453000122BE9D8E15C0029E6D00133044A580087
:104540008152DBB2F4E70020E6E7C04600E102203A
:10455000942800200904000064B7011010B5024837
:1045600000F02AF810BDC0464CDE002010B502490C
:104570000822FEF733FA10BD4CDE002010B50023F0
:1045800002E03732C25401334A1E9A420ED90F2B31
:104590000CD85A08074CA45C01229A43920014419B
:1045A0000F222240092AECDC3032EBE7C01800234E
:1045B000037010BD4CDE002070B588B0040004AD5F
:1045C0000D2200212800FEF703FA0D220021684683
:1045D000FEF7FEF94B232B700D226946280014F0DC
:1045E0007FF8002304E05A1D69468A5CE2540133D7
:1045F000072BF8DD08B070BD70B582B07F23034093
:10460000C509274C5E0076197601A419A07068428E
:10461000684160700020E0702183E276012D1ED099
:10462000D800204A944660441D4A5900491949015E
:10463000521890601A4A5900491949015218926853
:1046400000211160002B10D1154A5B005B195B0142
:10465000D31800225A60144ADA6002B070BDD80044
:10466000124A94466044A060E4E7012D0BD0591E25
:10467000C9000F4A94466144094A5B005B195B011B
:10468000D2185160E9E7591EC9000A4A94466144AC
:10469000034A5B005B195B01D2185160DDE7C0463D
:1046A000AC2D0020840010500001105080001050EC
:1046B0000C0010500800105010B5038B3F333F2200
:1046C0009343C27E022A08D006490A68C260D31802
:1046D0000B60054A934202D810BD5B00F4E7FDF77A
:1046E0000FFCF9E7A4CB0020FF0F1050F8B57F2591
:1046F0000540C6096B009B195B010E4C1C19FFF7A6
:104700007BFF002D00D1F8BD0A4B6D00AD196D0186
:104710005D19298B2000FFF7CFFFEB7E9B06E96830
:10472000054A4A4013438022120613436A68136005
:10473000E9E7C046AC2D00200000105010B5040081
:104740007F202040E409400000194001024BC018BE
:1047500000F0EAF810BDC046AC2D002010B50121D4
:104760000520FCF7B7FA10BD10B50022002180200B
:10477000FFF7E4FF10BD0000024B80225202DA6412
:104780007047C0460020115070B5050000F0AAF82F
:10479000124C0C23A3671249FF220520FCF7E2FA12
:1047A000104840220021FEF713F90022402100208A
:1047B000FFF79CFF002240218020FFF797FF13F0B6
:1047C000F7FF0123236480239B05E3649023064ABB
:1047D000E2502800FFF7D0FF012070BD000011500B
:1047E000DD050020AC2D002010D00100044B197015
:1047F000002904D0034A902380218902D1507047B8
:1048000057E20220002011500B785B0602D14B7852
:10481000052B00D070478A78014B1A60FAE7C04632
:104820000000115010B5CA789207920F012A0AD0E1
:1048300088780B794979090219434905490DFFF731
:1048400055FF012010BD0020FCE710B513F0B0FFAC
:1048500010BD10B5080011001A00FFF76FFF01200E
:1048600010BD000010B57F23180008400B4205D191
:10487000CB09012B0ED00222074B9A66C9094000D2
:1048800040184001054BC01880221201002113F08E
:10489000A7FF10BD0122EFE700201150AC2D002032
:1048A00010B57F22100008400A4200D110BDC9098E
:1048B000400040184001044BC0180023C370002280
:1048C000024913F08DFFF1E7AC2D0020FFF7FFFF49
:1048D00004E00A780270013101301A00531E002AE8
:1048E000F7D1704710B580235B040A4A13600A4A67
:1048F00013600A4B1A6880235B049343F9D180222A
:10490000520100210648FEF763F8064B09225A6758
:1049100010BDC04600E0004000F0004008C000406C
:10492000000010500000115070B504000D0016007A
:10493000837E002B17D1A6820023E3820133A37666
:104940002561200013F00CFF002804D00C4A9023AE
:1049500080218902D150200013F03AFF00280AD0AC
:104960000123237770BD81780648FFF7F7FA20000E
:1049700013F026FFDFE7200013F00AFFF2E7C0463E
:1049800000201150B48E011070B50500002408E01D
:104990009B1A5B01164A9B18DB6828009847013474
:1049A000E4B2144B1A782300511CA1420DDBA24241
:1049B000EED9114B1B6862019B18002BECD10F49FB
:1049C0000F48104AFFF7CAFA10E00F4C542200219A
:1049D0002000FDF7FDFF201D1022FF21FDF7F8FF4D
:1049E000200014302022FF21FDF7F2FF70BDC046E9
:1049F00044B9011056E20220E816002010B9011057
:104A0000EC8E011025020000981800200268EFF3D8
:104A1000108172B61368002BFCD0BFF35F8F41602A
:104A2000704710B5FFF7B0FF00F05EFE10BD70B527
:104A300005000C001600486900F060FE6369320052
:104A400001212800984770BDF0B5DE4657464E4616
:104A50004546E0B583B082460139C8B2FFF744FD50
:104A6000002803D043789946022B0CD0564957486A
:104A7000574AFFF773FA002003B0F0BCBB46B246BA
:104A8000A946A046F0BDC5796C110122514B1440D6
:104A9000240119781026B14321431970AD112A4021
:104AA0005201C9B22024A1430A431A7006000936F4
:104AB0008278C3781B02134383469B444B46019381
:104AC000370066E0FB7899463A78BF1868E03E49BF
:104AD0003E48414AFFF742FA0020CDE7009AD31A38
:104AE0005B013E4E9E1933692200390050469847BB
:104AF000082801D9844216D20135EDB2384B1B7813
:104B000000955A1CAA423EDBAB42E7D9354B1B68E5
:104B10006E019E19002EE6D12B492C48324AFFF730
:104B20001DFA0020A8E73400009E00904B46012BA0
:104B300011D00020494681421BD9BB781B18DBB23B
:104B4000244AD2181279FF2A0CD1224AD3181D7197
:104B50000130C0B2EFE72169244A9142E9D1019BBB
:104B60009946E6E718491948214AFFF7F7F9002066
:104B700082E720482B00009C2200390001F068FCED
:104B8000A446674400E02E00154B1B7801339E427B
:104B90000FDC5F4515D27B780B2B93D00123994610
:104BA0007A78042A93D15B46DA1B93B200251C0065
:104BB000A4E7852204490548D200FFF7CFF9002079
:104BC0005AE7012058E7C046E4B80110EC8E011006
:104BD000D603000098180020F103000044B901102A
:104BE00056E20220E8160020FA030000955B001050
:104BF00019040000AC18002070477047002070476F
:104C00000020704770B505000C00CB7888780F2B1A
:104C100053D89A002E498A589746FFF761FC021E26
:104C200005D012232100280000F012FD46E029499A
:104C300029482A4AFFF792F900203FE0FFF7EEF9F2
:104C4000021E3CD08178C3781B020B432100280050
:104C500000F0FEFC32E0022B0CD0FFF7D1FF021E69
:104C60002FD09178D3781B020B432100280000F04D
:104C7000EFFC23E0FFF738FC021EF2D1154916487D
:104C8000174AFFF76BF9002018E0237961790902D0
:104C90001943FFF72DFC021E15D0037821002800D0
:104CA00000F0D6FC0AE0FFF7A9FF021E0DD0037842
:104CB0002100280000F0CCFC00E0002070BD0020A6
:104CC000FCE70020FAE70020F8E70020F6E7C046FE
:104CD000E4B70110CCB80110EC8E01103A040000CA
:104CE000610400007047704770477047024B587866
:104CF000431E9841C0B2704798180020024B1878A4
:104D00004007C00F7047C04698180020034B187822
:104D1000FF38431E9841C0B27047C046C40D002002
:104D2000F8B505000F00FFF7F1FF061E48D1002F70
:104D300021D02E4854220021FDF74AFE2C4B0022A0
:104D40001A702C4C2000FCF755FA2B4B1C602B4C96
:104D50002000FCF78FFA143C200001F013FF284BD1
:104D60001C60284B002B04D02748FFF777F9274B0E
:104D70001860002410E0E922254926485200FFF778
:104D8000EDF81DE09B1A5B01234A9B185B68002B22
:104D900010D098470134E4B21B4B1A782300511C01
:104DA000A1420FDBA242EDD9184B1B6862019B1890
:104DB000002BEBD1F822164916485200FFF7CEF827
:104DC0003000F8BD154B1D7039002800FFF7DCFCE2
:104DD000061E03D02800FFF7C1FCF1E7FC220C49B6
:104DE0000C485200FFF7BAF8EAE7C04698180020CE
:104DF00058E2022090180020EC180020BC0D002082
:104E0000F01800205D40001056E20220E816002055
:104E100034B90110EC8E011044B90110C40D00200A
:104E200070B50D00104B1E788B7870221A420DD190
:104E30000E4B9978280001F0B5FA041E0DD0290018
:104E40003000FFF7EFFC0400200070BD084909485E
:104E5000094AFFF783F80024F6E705490548074AA1
:104E6000FFF77CF8F0E7C046C40D0020981800203A
:104E70009CB80110EC8E01100B0500000C05000021
:104E8000F0B5D6464F464646C0B581460C001700E1
:104E90009846089B9A46002517E018491848194A71
:104EA000FFF75CF800263000E0BCBA46B146A846E1
:104EB000F0BD9D2211491248D200FFF74FF8F2E7EA
:104EC000099A13702378E4180135AF4214DD637832
:104ED000052BE2D1E1788907890F4145DDD1210019
:104EE0004846FFF79DFF061EE3D0A378DA09012AA2
:104EF000E6D052461370E5E70126D4E7ACB80110BE
:104F0000EC8E0110E704000010B57F200840C909AD
:104F1000400040183030044BC0180430034B19686F
:104F200001F0FCF910BDC04698180020EC180020D4
:104F300010B57F200840C909400040183030044BAC
:104F4000C0180430034B196801F010FA10BDC046B8
:104F500098180020EC180020F0B5C64600B582B0C5
:104F600001931A4800787F250D40CE09184C6F0038
:104F7000E419A41930342479E4071DD4144C6F00CB
:104F8000E419A419303423790127BC4667463B4312
:104F90002371019BFFF75DFC002813D10C4B6D00C2
:104FA0005B199B1930331A7901218A431A711A79D6
:104FB00003318A431A7105E006490748074AFEF79C
:104FC000CDFF002002B080BCB846F0BDC40D00206B
:104FD000981800208CB80110EC8E011039050000E3
:104FE00070B50A4B18787F240C40CD09FFF73AFCC6
:104FF000074A640013195B1930331A7902210A43F6
:105000001A711A7901210A431A7170BDC40D00206A
:105010009818002070B50A4B18787F240C40CD09F1
:10502000FFF73EFC074A640013195B1930331A7905
:1050300002218A431A711A7901398A431A7170BDA3
:10504000C40D0020981800207F220A40C909044B93
:1050500052009B185B18303318798007C00F7047D7
:1050600098180020F0B585B005000C00002000F075
:1050700045FB237860221A40602A1AD0402A20D0AB
:105080002378DB06DB0E012B00D1D6E0022B00D10A
:1050900016E1002B00D07CE1202A1CD0002A00D091
:1050A0007FE16378092B00D97DE19B00C54AD35885
:1050B0009F465532C449C5489200FEF74FFF00266F
:1050C00068E1C34800F01AFB220001212800FEF726
:1050D000A9FF06005EE123790F2B00D95DE1BD4AEF
:1050E000D3181B79BC4A1278934207D2BB4A116885
:1050F0005B01C918002909D100264BE1511C9942D6
:1051000000DA4CE19B1A5B01B549591822002800CE
:10511000FFF78DFC06003DE1200000F0F5FAA178D4
:105120002800FFF721FBAB4A137802210B431370D1
:1051300001262FE1A74B5B7802AA063213700123E8
:105140002100280000F084FA012623E1A678A14B73
:105150005B78B3422CD09F4B5B78002B0CD19D4BDE
:105160005E70002E22D031002800FFF76DFC061E75
:1051700012D0FFF7B7FD1BE000212800FFF736FB38
:105180002800FFF762FB934FBB7801932800FFF7DD
:10519000FBFB019BBB70E2E7C9228B498B48920065
:1051A000FEF7DCFE8B4B00225A70F3E0FFF79BFD0D
:1051B0002100280000F038FA0126EBE02100280049
:1051C000FFF720FD0600E5E0A278E3781B02134319
:1051D000012B01D00026DDE07E4A137808210B4325
:1051E00013702100280000F01FFA0126D2E0A278F7
:1051F000E3781B021343012B01D00026CAE0754A55
:10520000137808218B4313702100280000F00CFA5A
:105210000126BFE06F4B1A78510992080223134010
:1052200001220A40134302AA0632138002232100FE
:10523000280000F00DFA0126ACE023790F2B00D9ED
:10524000B3E0644AD3181B79634A1278934223D29D
:10525000624A11685B01C918002900D1A7E0220049
:105260002800FFF7E4FB061E00D093E023786022BD
:105270001A4200D08EE063780A3B012B00D989E006
:10528000002000F03BFA63780A2B0ED021002800A2
:1052900000F0CAF901267DE0511C994200DA88E04D
:1052A0009B1A5B014E495918D9E702AB9A1D00239E
:1052B000137001332100280000F0CAF9013669E0BB
:1052C00021797F200840CE0970230B4217D1414B32
:1052D00040001B189B191B7D3F480078834215D264
:1052E0003E4806685B01F618002A19D0002E62D0ED
:1052F000220031002800FFF79AFB06004AE03249FD
:105300003248384AFEF72AFE002643E0461C9E42F9
:1053100004DB1B1A5B01324E9E19E5E70026E3E72A
:105320006378012B10D0032B0ED0002B45D1280021
:10533000FFF78AFE02AB9A1D10800223210028008D
:1053400000F086F9012625E0A078E27812020243F7
:1053500004D1012B19D02800FFF742FE002E2ED0D9
:10536000220031002800FFF762FB002000F0C6F9A0
:10537000184B35229B5CDB07DE0F002B0AD1210086
:10538000280000F051F9012604E02800FFF742FE52
:10539000E4E70026300005B0F0BD0026FAE700265D
:1053A000F8E70026F6E70026F4E70026F2E70026F5
:1053B000F0E70026EEE70026ECE70026EAE7012604
:1053C000E8E7C04640B80110F8B80110EC8E0110B3
:1053D000254000109818002056E20220E816002010
:1053E00044B901109503000030B585B0FFF78EFC7D
:1053F000002808D105B030BD01AC2078FFF711FBC3
:105400002279604B9A70604B1C6820001430FFF7C3
:10541000FDFA01A9200001F058FB6269A369BFF3FE
:105420005F8F0021116083F310880028E2D001AB68
:105430005B78082BE7D89B00544AD3589F4601ABB2
:105440001878FFF7EEFAFFF74EFCDCE7504B1B78BD
:10545000002B2DD04E4A1378013BDBB2137013782A
:10546000002BD0D1474B1A78012401210A431A702E
:105470003422995CA1439954995C04208143995446
:105480000132995CA1439954995C8143995401ABD1
:10549000187802A9FFF7E6FD0028B4D101AC207806
:1054A0000021FFF7DFF920788021FFF7DBF9AAE779
:1054B00038493948394AFEF751FD9BE701AB197964
:1054C0007F220A40CC092F4B50001B181B19303388
:1054D00018790125A843187118790335A843187164
:1054E000002A15D0274B52009B181B191B7D2C4AF4
:1054F0001278934213D22B4A12685B01D318002B07
:1055000015D09C6901A84279039B0078A0477AE7EF
:1055100001A84279039B007800F004F973E7501C5E
:10552000984204DB9B1A5B011F4A9B18E9E7A422FF
:10553000184919489200FEF711FD5BE7114B1B78E3
:10554000DB0700D45FE70F4B18780007C00FFFF7A9
:10555000CBFB58E70B4B1B78DB0700D453E7FFF777
:10556000C4FB50E7029B002B00D14CE703989847FF
:1055700049E7044BDB78DB0700D444E70298FFF7E8
:105580003CFB40E798180020F018002068B8011094
:1055900058E2022024B90110EC8E011065020000CF
:1055A00056E20220E816002044B9011010B500238D
:1055B000CB56002B05DB802100230022FFF7CCFC1B
:1055C00010BD0021F8E70000F8B50500144B9F89D5
:1055D000DE89BB1B9BB21C1C402B00D94024A4B20B
:1055E0000F4B1B785BB2002B08DB0021B74213D0B6
:1055F0000C4A23002800FFF7AFFCF8BDB74209D0E2
:10560000074B9968402C09D806482200FDF7E6F9B7
:105610008021EBE78021E9E70022EAE70020ECE7C0
:10562000781800203818002070B506000D00074CCF
:1056300008222000FDF7D2F90023A360E381A381B3
:1056400029003000FFF7B2FF70BDC0467818002077
:10565000F0B5C64600B580460C0016001D001F4B75
:1056600008221F001800FDF7B9F9BE600023FB8176
:10567000A379E179090219430B1CA94200D92B1C1B
:1056800099B2164A9381A279E3791B02134319D088
:10569000002901D0002E08D04046FFF795FF041ED8
:1056A0000AD0200080BCB846F0BD0D490D487222DA
:1056B000FEF754FC0024F4E709490A487422FEF777
:1056C0004DFCEEE721004046FFF770FF041EE8D1D5
:1056D000034904487622FEF741FCE2E778180020EF
:1056E0009CB90110EC8E011010B503481422002162
:1056F000FDF76EF910BDC04678180020014B186107
:105700007047C0467818002010B50100044C0822EC
:105710002000FDF763F90023A360E381A38110BD9E
:105720007818002070B505001C00C909314B1B78A2
:10573000DB098B4216D0002C07D02F492F489D2221
:10574000FEF70CFC0024200070BD2A4C2100FFF75E
:105750005BF82369002B03D0264A032128009847D1
:105760000124F0E7234B1B785BB2002B07DB214BB6
:10577000986800283CD022492200FDF72FF91D4AE5
:10578000D389A1B25B189BB2D3819168091991604A
:10579000D288934201D03F2C1FD8164B1B69002B97
:1057A00005D0144A02212800984700280BD011493F
:1057B0002800FFF7FBFE041EC5D10F490F48C52284
:1057C000FEF7CCFBBFE700212800FFF74BF8802154
:1057D0002800FFF747F80124B5E72800FFF7F4FE9B
:1057E000041EB0D104490548CD22FEF7B7FBAAE755
:1057F0000024A8E77818002084B90110EC8E01106D
:105800003818002070B50500FFF770FA002802D1A3
:105810000024200070BDFFF771FA041EF8D11C4B64
:10582000C8226A439B18DB78002BF1D0C8266E4350
:105830001036174BF618300001F030F93F28E8D940
:10584000134BC8226A439B18D9780020FFF75CFBF2
:10585000002801D10400DCE7300001F01FF93F28E7
:105860000DD9EA010B4BD218094BC82169435B18CB
:10587000D97840230020FFF76FFB0400C9E7044BF1
:10588000C8226A439B18D9780020FFF751FBC0E774
:1058900070170020EC16002010B50400FFF726FA60
:1058A000002801D1002010BDFFF728FA002808D1F8
:1058B000064BC82262439B181B79DB0703D50130D6
:1058C000F1E70020EFE70020EDE7C0467017002069
:1058D00010B5C823434310330248181801F0ACF840
:1058E00010BDC0467017002070B50400C82060438A
:1058F0000300103307481818074B9A4208D892B291
:1059000001F004F905002000FFF77CFF280070BDBE
:10591000024AF5E770170020FEFF0000FFFF0000BD
:1059200070B50500FFF7E2F9002801D1002070BD35
:10593000FFF7E4F90028F9D1C8246C432034204B48
:10594000E4180434200001F077F8002801D1002089
:10595000EDE71B4BC8226A439B1899780020FFF79C
:10596000D3FA002801D10020E1E7EE014036154BC3
:10597000F61840223100200001F0C8F8041E14D0AF
:105980000F4BC8226A439B1899780300320000200D
:10599000FFF7E2FA002801D02000C8E70A490B48C7
:1059A000D522FEF7DBFA0020C1E7054BC8226A4387
:1059B0009B1899780020FFF7BBFA0020B7E7C04694
:1059C00070170020EC160020CCB90110EC8E0110ED
:1059D00070B50500C824444320340C4BE41804344B
:1059E0000B4B9A420BD892B2200001F0C6F8060089
:1059F000200001F021F83F2803D8300070BD054A8F
:105A0000F2E72800FFF78CFFF7E7C0467017002089
:105A1000FEFF0000FFFF000010B5C82358432030F0
:105A2000024BC018043001F039F810BD7017002087
:105A3000F0B5CE46474680B583B02648C82200213F
:105A4000FCF7C6FF244B00221A700027002F04D059
:105A500003B0C0BCB946B046F0BD1E4EC8247C435E
:105A60003519FF236B71E1235B02AB60002398467D
:105A70002B736B730833AB73210038318919200005
:105A800010308019434600930133402200F096FF06
:105A90002100783189192000203080190430012339
:105AA0000093402200F08AFF2300B8339946B144A6
:105AB0004846FBF79FFBC034A4192000FBF79AFB74
:105AC0004346EB614B462B622C6343466B630137C5
:105AD000FFB2BBE7701700206C17002010B5002341
